{
  "_format": "hh-sol-artifact-1",
  "contractName": "Oracle",
  "sourceName": "contracts/Oracle.sol",
  "abi": [
    {
      "inputs": [
        {
          "internalType": "bytes21",
          "name": "_roflAppID",
          "type": "bytes21"
        },
        {
          "internalType": "uint8",
          "name": "_threshold",
          "type": "uint8"
        }
      ],
      "stateMutability": "nonpayable",
      "type": "constructor"
    },
    {
      "inputs": [],
      "name": "RoflOriginNotAuthorizedForApp",
      "type": "error"
    },
    {
      "inputs": [],
      "name": "SubcallError",
      "type": "error"
    },
    {
      "inputs": [],
      "name": "getLastObservation",
      "outputs": [
        {
          "internalType": "uint128",
          "name": "_value",
          "type": "uint128"
        },
        {
          "internalType": "uint256",
          "name": "_block",
          "type": "uint256"
        }
      ],
      "stateMutability": "view",
      "type": "function"
    },
    {
      "inputs": [],
      "name": "roflAppID",
      "outputs": [
        {
          "internalType": "bytes21",
          "name": "",
          "type": "bytes21"
        }
      ],
      "stateMutability": "view",
      "type": "function"
    },
    {
      "inputs": [
        {
          "internalType": "uint128",
          "name": "_value",
          "type": "uint128"
        }
      ],
      "name": "submitObservation",
      "outputs": [],
      "stateMutability": "nonpayable",
      "type": "function"
    },
    {
      "inputs": [],
      "name": "threshold",
      "outputs": [
        {
          "internalType": "uint8",
          "name": "",
          "type": "uint8"
        }
      ],
      "stateMutability": "view",
      "type": "function"
    }
  ],
  "bytecode": "0x60806040523480156200001157600080fd5b5060405162000f0c38038062000f0c8339818101604052810190620000379190620001b9565b60008160ff161162000080576040517f08c379a0000000000000000000000000000000000000000000000000000000008152600401620000779062000261565b60405180910390fd5b81600060016101000a81548174ffffffffffffffffffffffffffffffffffffffffff021916908360581c0217905550806000806101000a81548160ff021916908360ff1602179055506000600260000160006101000a8154816fffffffffffffffffffffffffffffffff02191690836fffffffffffffffffffffffffffffffff1602179055506000600260010181905550505062000283565b600080fd5b60007fffffffffffffffffffffffffffffffffffffffffff000000000000000000000082169050919050565b62000155816200011e565b81146200016157600080fd5b50565b60008151905062000175816200014a565b92915050565b600060ff82169050919050565b62000193816200017b565b81146200019f57600080fd5b50565b600081519050620001b38162000188565b92915050565b60008060408385031215620001d357620001d262000119565b5b6000620001e38582860162000164565b9250506020620001f685828601620001a2565b9150509250929050565b600082825260208201905092915050565b7f496e76616c6964207468726573686f6c64000000000000000000000000000000600082015250565b60006200024960118362000200565b9150620002568262000211565b602082019050919050565b600060208201905081810360008301526200027c816200023a565b9050919050565b610c7980620002936000396000f3fe608060405234801561001057600080fd5b506004361061004c5760003560e01c806342cde4e814610051578063dae1ee1f1461006f578063efae93df1461008b578063f29f4110146100a9575b600080fd5b6100596100c8565b6040516100669190610583565b60405180910390f35b610089600480360381019061008491906105fa565b6100d9565b005b61009361027b565b6040516100a09190610662565b60405180910390f35b6100b161028e565b6040516100bf9291906106a5565b60405180910390f35b60008054906101000a900460ff1681565b6100f1600060019054906101000a900460581b610314565b60018190806001815401808255809150506001900390600052602060002090600291828204019190066010029091909190916101000a8154816fffffffffffffffffffffffffffffffff02191690836fffffffffffffffffffffffffffffffff16021790555060008054906101000a900460ff1660ff1660018054905010610278576000805b6001805490508110156101fc5760018181548110610198576101976106ce565b5b90600052602060002090600291828204019190066010029054906101000a90046fffffffffffffffffffffffffffffffff166fffffffffffffffffffffffffffffffff16826101e7919061072c565b915080806101f490610760565b915050610177565b506001805490506fffffffffffffffffffffffffffffffff168161022091906107d7565b905080600260000160006101000a8154816fffffffffffffffffffffffffffffffff02191690836fffffffffffffffffffffffffffffffff16021790555043600260010181905550600160006102769190610522565b505b50565b600060019054906101000a900460581b81565b60008043600a6002600101546102a4919061072c565b116102e4576040517f08c379a00000000000000000000000000000000000000000000000000000000081526004016102db90610865565b60405180910390fd5b600260000160009054906101000a90046fffffffffffffffffffffffffffffffff16915060026001015490509091565b6000806103756040518060400160405280601781526020017f726f666c2e4973417574686f72697a65644f726967696e0000000000000000008152508460405160200161036191906108fd565b604051602081830303815290604052610420565b9150915060008267ffffffffffffffff1614158061039557506001815114155b806103e4575060f560f81b816000815181106103b4576103b36106ce565b5b602001015160f81c60f81b7effffffffffffffffffffffffffffffffffffffffffffffffffffffffffffff191614155b1561041b576040517f6890282f00000000000000000000000000000000000000000000000000000000815260040160405180910390fd5b505050565b6000606060008073010000000000000000000000000000000000010373ffffffffffffffffffffffffffffffffffffffff1686866040516020016104659291906109f7565b6040516020818303038152906040526040516104819190610a6a565b600060405180830381855afa9150503d80600081146104bc576040519150601f19603f3d011682016040523d82523d6000602084013e6104c1565b606091505b5091509150816104fd576040517f902e94f800000000000000000000000000000000000000000000000000000000815260040160405180910390fd5b808060200190518101906105119190610be7565b809450819550505050509250929050565b508054600082556001016002900490600052602060002090810190610547919061054a565b50565b5b8082111561056357600081600090555060010161054b565b5090565b600060ff82169050919050565b61057d81610567565b82525050565b60006020820190506105986000830184610574565b92915050565b6000604051905090565b600080fd5b600080fd5b60006fffffffffffffffffffffffffffffffff82169050919050565b6105d7816105b2565b81146105e257600080fd5b50565b6000813590506105f4816105ce565b92915050565b6000602082840312156106105761060f6105a8565b5b600061061e848285016105e5565b91505092915050565b60007fffffffffffffffffffffffffffffffffffffffffff000000000000000000000082169050919050565b61065c81610627565b82525050565b60006020820190506106776000830184610653565b92915050565b610686816105b2565b82525050565b6000819050919050565b61069f8161068c565b82525050565b60006040820190506106ba600083018561067d565b6106c76020830184610696565b9392505050565b7f4e487b7100000000000000000000000000000000000000000000000000000000600052603260045260246000fd5b7f4e487b7100000000000000000000000000000000000000000000000000000000600052601160045260246000fd5b60006107378261068c565b91506107428361068c565b925082820190508082111561075a576107596106fd565b5b92915050565b600061076b8261068c565b91507fffffffffffffffffffffffffffffffffffffffffffffffffffffffffffffffff820361079d5761079c6106fd565b5b600182019050919050565b7f4e487b7100000000000000000000000000000000000000000000000000000000600052601260045260246000fd5b60006107e28261068c565b91506107ed8361068c565b9250826107fd576107fc6107a8565b5b828204905092915050565b600082825260208201905092915050565b7f4e6f206f62736572766174696f6e20617661696c61626c650000000000000000600082015250565b600061084f601883610808565b915061085a82610819565b602082019050919050565b6000602082019050818103600083015261087e81610842565b9050919050565b600081905092915050565b7f5500000000000000000000000000000000000000000000000000000000000000600082015250565b60006108c6600183610885565b91506108d182610890565b600182019050919050565b6000819050919050565b6108f76108f282610627565b6108dc565b82525050565b6000610908826108b9565b915061091482846108e6565b60158201915081905092915050565b600081519050919050565b60005b8381101561094c578082015181840152602081019050610931565b60008484015250505050565b6000601f19601f8301169050919050565b600061097482610923565b61097e8185610808565b935061098e81856020860161092e565b61099781610958565b840191505092915050565b600081519050919050565b600082825260208201905092915050565b60006109c9826109a2565b6109d381856109ad565b93506109e381856020860161092e565b6109ec81610958565b840191505092915050565b60006040820190508181036000830152610a118185610969565b90508181036020830152610a2581846109be565b90509392505050565b600081905092915050565b6000610a44826109a2565b610a4e8185610a2e565b9350610a5e81856020860161092e565b80840191505092915050565b6000610a768284610a39565b915081905092915050565b600067ffffffffffffffff82169050919050565b610a9e81610a81565b8114610aa957600080fd5b50565b600081519050610abb81610a95565b92915050565b600080fd5b600080fd5b7f4e487b7100000000000000000000000000000000000000000000000000000000600052604160045260246000fd5b610b0382610958565b810181811067ffffffffffffffff82111715610b2257610b21610acb565b5b80604052505050565b6000610b3561059e565b9050610b418282610afa565b919050565b600067ffffffffffffffff821115610b6157610b60610acb565b5b610b6a82610958565b9050602081019050919050565b6000610b8a610b8584610b46565b610b2b565b905082815260208101848484011115610ba657610ba5610ac6565b5b610bb184828561092e565b509392505050565b600082601f830112610bce57610bcd610ac1565b5b8151610bde848260208601610b77565b91505092915050565b60008060408385031215610bfe57610bfd6105a8565b5b6000610c0c85828601610aac565b925050602083015167ffffffffffffffff811115610c2d57610c2c6105ad565b5b610c3985828601610bb9565b915050925092905056fea2646970667358221220dc8d621880d2ea2691d384924f269164f051197fa74e8e6e7857a105f48c73ce64736f6c63430008130033",
  "linkReferences": {},
  "deployedLinkReferences": {}
}